:020000040800F2
:1000000000000120FD1A0008890900088B0900087A
:100010008D0900088F090008910900080000000000
:10002000000000000000000000000000930900082C
:1000300095090008000000009709000899090008C8
:100040004D1B00084D1B00084D1B00084D1B0008F0
:100050004D1B00084D1B00084D1B00084D1B0008E0
:100060004D1B00084D1B00084D1B00084D1B0008D0
:100070004D1B00084D1B00084D1B00084D1B0008C0
:100080004D1B00084D1B00084D1B00080000000020
:100090000000000000000000000000004D1B0008F0
:1000A0004D1B00084D1B00084D1B00084D1B000890
:1000B0004D1B00084D1B00084D1B00084D1B000880
:1000C0004D1B00084D1B00084D1B00084D1B000870
:1000D0004D1B00084D1B00084D1B000800000000D0
:1000E0004D1B00084D1B00084D1B000800000000C0
:1000F0000000000000000000000000004D1B000890
:10010000000000004D1B00084D1B00084D1B00089F
:1001100000000000000000000000000000000000DF
:100120004D1B00084D1B00084D1B00084D1B00080F
:100130004D1B00080000000000000000000000004F
:100140000000000000000000000000004D1B00083F
:100150004D1B00084D1B00084D1B00084D1B0008DF
:100160004D1B00084D1B00080000000000000000AF
:10017000000000000000000000000000000000007F
:10018000000000004D1B00080000000000000000FF
:040190004D1B0008FB
:100194000348044B834202D0034B03B11847704712
:1001A4000C0000200C000020000000000548064957
:1001B4000B1AD90F01EBA301491002D0034B03B171
:1001C400184770470C0000200C00002000000000BD
:1001D40010B5064C237843B9FFF7DAFF044B13B18B
:1001E4000448AFF300800123237010BD0C000020ED
:1001F40000000000501B000808B5044B1BB1044963
:100204000448AFF30080BDE80840CFE700000000D9
:1002140010000020501B000870B50D4E0D4D761BCC
:10022400B61006D0002455F8043B01349847A64282
:10023400F9D1094E094D761B01F088FCB61006D0A1
:10024400002455F8043B01349847A642F9D170BD07
:10025400801B0008801B0008841B0008801B00080A
:10026400830730B548D0541E002A3FD0CAB2034693
:1002740001E0013C3AD303F8012B9D07F9D1032C8B
:100284002DD9CDB245EA05250F2C45EA054536D9C9
:10029400A4F1100222F00F0C03F1200EE6444FEA01
:1002A400121C03F1100242E9045542E902551032CE
:1002B4007245F8D10CF1010214F00C0F03EB021299
:1002C40004F00F0C13D0ACF1040323F00303043344
:1002D400134442F8045B9342FBD10CF003042CB1A9
:1002E400CAB21C4403F8012B9C42FBD130BD6446C6
:1002F4001346002CF4D1F9E703461446BFE71A4627
:10030400A446E0E753B94AB9002908BF00281CBF36
:100314004FF0FF314FF0FF3000F074B9ADF1080C2D
:100324006DE904CE00F006F8DDF804E0DDE902230F
:1003340004B070472DE9F047089D04468E46002B13
:100344004DD18A42944669D9B2FA82F252B101FA85
:1003540002F3C2F1200120FA01F10CFA02FC41EA95
:10036400030E94404FEA1C48210CBEFBF8F61FFA1A
:100374008CF708FB16E341EA034306FB07F19942B5
:100384000AD91CEB030306F1FF3080F01F81994268
:1003940040F21C81023E63445B1AA4B2B3FBF8F042
:1003A40008FB103344EA034400FB07F7A7420AD9C9
:1003B4001CEB040400F1FF3380F00A81A74240F2F1
:1003C40007816444023840EA0640E41B00261DB15C
:1003D400D4400023C5E900433146BDE8F0878B4291
:1003E40009D9002D00F0EF800026C5E90001304650
:1003F4003146BDE8F087B3FA83F6002E4AD18B422A
:1004040002D3824200F2F980841A61EB03030120D3
:100414009E46002DE0D0C5E9004EDDE702B9FFDEBF
:10042400B2FA82F2002A40F09280A1EB0C014FEA6A
:100434001C471FFA8CFE0126200CB1FBF7F307FBC7
:10044400131140EA01410EFB03F0884208D91CEB6A
:10045400010103F1FF3802D2884200F2CB80434607
:10046400091AA4B2B1FBF7F007FB101144EA0144E6
:100474000EFB00FEA64508D91CEB040400F1FF3175
:1004840002D2A64500F2BB800846A4EB0E0440EA63
:1004940003409CE7C6F12007B34022FA07FC4CEA6C
:1004A400030C20FA07F401FA06F31C43F9404FEA5F
:1004B4001C4900FA06F3B1FBF9F8200C1FFA8CFE74
:1004C40009FB181140EA014108FB0EF0884202FAC8
:1004D40006F20BD91CEB010108F1FF3A80F0888089
:1004E400884240F28580A8F102086144091AA4B246
:1004F400B1FBF9F009FB101144EA014100FB0EFEC7
:100504008E4508D91CEB010100F1FF346CD28E45F5
:100514006AD90238614440EA0840A0FB0294A1EB86
:100524000E01A142C846A64656D353D05DB1B3EBE3
:10053400080261EB0E0101FA07F722FA06F3F14013
:100544001F43C5E9007100263146BDE8F087C2F1BA
:100554002003D8400CFA02FC21FA03F39140014332
:100564004FEA1C471FFA8CFEB3FBF7F007FB10366B
:100574000B0C43EA064300FB0EF69E4204FA02F417
:1005840008D91CEB030300F1FF382FD29E422DD96A
:10059400023863449B1B89B2B3FBF7F607FB16339F
:1005A40041EA034106FB0EF38B4208D91CEB01011F
:1005B40006F1FF3816D28B4214D9023E6144C91A9F
:1005C40046EA004638E72E46284605E70646E3E6AF
:1005D4001846F8E64B45A9D2B9EB020864EB0C0EB9
:1005E4000138A3E74646EAE7204694E74046D1E7C8
:1005F400D0467BE7023B614432E7304609E7644476
:10060400023842E7704700BF84B000220092154BC5
:10061400196B41F004011963196B01F00401009195
:1006240000990192196B41F080011963196B01F073
:100634008001019101990292196B41F00201196341
:10064400196B01F002010291029903921A6B42F0B4
:1006540001021A631B6B03F001030393039B04B0B1
:10066400704700BF0038024072B6FEE710B596B07E
:1006740000241294139414941594109411940994CE
:100684000A940B940C940D940E940F9420222146FA
:1006940001A8FFF7E5FD3248324B036007234360AE
:1006A400846040F2E733C36004614461846100F014
:1006B4002BFF002844D14FF48053129312A92848E9
:1006C40001F027F800283DD1254800F049FF002813
:1006D4003AD100231093119310A9214801F0A4F9F1
:1006E400002833D16023099300220A920B920C92C2
:1006F4000D920E920F9209A9194800F08FFF38BB92
:10070400042209A9164800F089FF18BB082209A988
:10071400134800F083FFF8B9002301930293039375
:10072400049305934FF400520692089301A90C48D0
:1007340001F0B8F990B90A4800F0E2F816B010BD1B
:10074400FFF792FFFFF790FFFFF78EFFFFF78CFF95
:10075400FFF78AFFFFF788FFFFF786FFFFF784FFA5
:10076400280000200000014000B595B0302200218F
:1007740008A8FFF775FD00230393049305930693DC
:1007840007930193204A116C41F080511164126C5B
:1007940002F080520192019A02931C4A136823F4D6
:1007A400404343F400431360136803F4404302934B
:1007B400029B012308934FF48033099302230E9381
:1007C4004FF480020F9219221092A82211921293D0
:1007D4000423139308A800F08FFA80B90F2303931E
:1007E40002210491002305934FF48052069207934B
:1007F40003A800F0CFFC20B915B05DF804FBFFF7A7
:1008040033FFFFF731FF00BF0038024000700040A3
:1008140070B500F0F3F8FFF7A7FFFFF7F5FEFFF759
:1008240025FF1B4C0021204601F002F8042120463C
:1008340000F0FEFF0821204600F0FAFF00212046C8
:1008440001F07EF80421204601F07AF808212046C0
:1008540001F076F84FF49674642601250DE0002625
:100864000FE00025B4F57A7F10DC0134094B5E6398
:100874009D63DC63012000F0EDF8B6F57A7FEEDCD1
:100884000136B5F57A7FECDC0135EBE70024EDE7C2
:10089400280000200000014082B0002100910B4B91
:1008A4005A6C42F480425A645A6C02F480420092B8
:1008B400009A01911A6C42F080521A641B6C03F086
:1008C40080530193019B02B0704700BF003802407F
:1008D4000268094B9A4200D0704782B0002301930A
:1008E400064B5A6C42F001025A645B6C03F001033C
:1008F4000193019B02B070470000014000380240A0
:1009040070B588B00023039304930593069307936B
:100914000268194B9A4201D008B070BD00240194BA
:1009240003F59C331A6B42F002021A631A6B02F04D
:1009340002020192019A02941A6B42F001021A63B4
:100944001B6B03F001030293029B4FF46043039378
:10095400022604960125079503A9084800F0ECF83F
:100964004FF4E0630393049605940694079503A952
:10097400034800F0E1F8CFE7000001400004024022
:1009840000000240FEE7FEE7FEE7FEE7FEE77047F1
:100994007047704708B500F04BF808BD034AD2F819
:1009A400883043F47003C2F88830704700ED00E0EB
:1009B40010B504460E4B18784FF47A73B3FBF0F37A
:1009C4000C4A1068B0FBF3F000F0A2F868B90F2CE1
:1009D40001D901200AE0002221464FF0FF3000F047
:1009E4005FF8054B1C60002000E0012010BD00BF33
:1009F40004000020000000200800002008B50B4B74
:100A04001A6842F400721A601A6842F480621A602A
:100A14001A6842F480721A60032000F02FF80F2045
:100A2400FFF7C6FFFFF738FF002008BD003C024077
:100A3400034A1168034B1B780B441360704700BFD3
:100A44007000002004000020014B1868704700BFAC
:100A54007000002038B50446FFF7F6FF0546B4F1F0
:100A6400FF3F02D0044B1B781C44FFF7EDFF401BF3
:100A7400A042FAD338BD00BF04000020074AD3685F
:100A840023F4E0631B041B0C000200F4E060034346
:100A940043F0BF6343F40033D360704700ED00E0DC
:100AA40000B5194BDB68C3F30223C3F1070CBCF197
:100AB400040F28BF4FF0040C03F1040EBEF1060F1F
:100AC40018D9033B4FF0FF3E0EFA0CFC21EA0C014F
:100AD40099400EFA03F322EA0303194300280BDBBF
:100AE4000901C9B200F1604000F5614080F80013CB
:100AF4005DF804FB0023E5E700F00F000901C9B22B
:100B0400024B1954F4E700BF00ED00E014ED00E0DF
:100B14000138B0F1807F0BD24FF0E0235861054AD1
:100B2400F02182F823100020986107221A6170478F
:100B34000120704700ED00E000230F2B00F2D2806B
:100B440070B582B060E085685E000324B44025EA95
:100B54000405CC68B4402C438460456825EA02054A
:100B64004C68C4F300129A402A4342605AE0DC08FD
:100B7400083450F8246003F0070295000F22AA40BD
:100B840026EA020E0A69AA4042EA0E0240F824202C
:100B94005CE0042200E0002202FA0EF22A4302344E
:100BA400514D45F82420514A94686FEA0C0224EA16
:100BB4000C054E6816F4801F01D04CEA04054B4C1A
:100BC400A560E46802EA04054E6816F4001F01D02B
:100BD4004CEA0405454CE560646802EA04054E6885
:100BE40016F4003F01D04CEA0405404C65602468CB
:100BF40022404D6815F4803F01D04CEA04023B4C7E
:100C0400226001330F2B6BD801229A400C6804EA4E
:100C1400020C32EA0404F4D14C6804F00304013CED
:100C2400012C90D94A6802F00302032A09D0C4684F
:100C34005D000322AA4024EA02048A68AA402243EF
:100C4400C2604A6802F00302022A90D004684FEAA4
:100C5400430E032202FA0EF224EA02044A6802F066
:100C6400030202FA0EF2224302604A6812F4403F81
:100C7400C7D0002201921E4A546C44F48044546448
:100C8400526C02F480420192019A9C08A51C164AF7
:100C940052F8255003F003024FEA820E0F2202FAA3
:100CA4000EF225EA0205134A90423FF474AF02F5AE
:100CB400806290420ED002F5806290420CD002F520
:100CC400806290420AD002F5806290423FF461AFA4
:100CD400072261E701225FE702225DE703225BE767
:100CE40002B070BD704700BF00380140003C0140B5
:100CF4000038024000000240002800F0E08170B596
:100D040082B00446036813F0010F3BD09F4B9B68ED
:100D140003F00C03042B2CD09C4B9B6803F00C03B6
:100D2400082B21D06368B3F5803F4FD0B3F5A02FD3
:100D340052D0964B1A6822F480321A601A6822F450
:100D440080221A606368002B50D0FFF77DFE0546B1
:100D54008E4B1B6813F4003F14D1FFF775FE401B44
:100D64006428F5D90320B1E1884B5B6813F4800F44
:100D7400D8D0864B1B6813F4003F03D06368002B64
:100D840000F09F81236813F0020F54D07F4B9B68BF
:100D940013F00C0F3ED07D4B9B6803F00C03082B23
:100DA40033D0E368002B68D0794B01221A60FFF737
:100DB4004BFE0546754B1B6813F0020F54D1FFF729
:100DC40043FE401B0228F5D903207FE16F4A1368D4
:100DD40043F480331360B5E76C4B1A6842F4802205
:100DE4001A601A6842F480321A60ABE7FFF72CFEEF
:100DF4000546664B1B6813F4003FC3D0FFF724FE7F
:100E0400401B6428F5D9032060E1604B5B6813F450
:100E1400800FC6D15D4B1B6813F0020F03D0E3684B
:100E2400012B40F05081594A136823F0F8032169DB
:100E340043EAC1031360236813F0080F42D06369C7
:100E44006BB3534B0122C3F8802EFFF7FDFD05461B
:100E54004E4B5B6F13F0020F34D1FFF7F5FD401BCF
:100E64000228F5D9032031E1484A136823F0F80336
:100E7400216943EAC1031360DDE7454B00221A6090
:100E8400FFF7E2FD0546414B1B6813F0020FD2D079
:100E9400FFF7DAFD401B0228F5D9032016E13C4B8D
:100EA4000022C3F8802EFFF7CFFD0546374B5B6F5A
:100EB40013F0020F06D0FFF7C7FD401B0228F5D937
:100EC400032003E1236813F0040F77D02F4B1B6C2E
:100ED40013F0805F33D1002301932C4B1A6C42F042
:100EE40080521A641B6C03F080530193019B01250B
:100EF400284B1B6813F4807F23D0A368012B34D0C4
:100F0400052B38D0214B1A6F22F001021A671A6F91
:100F140022F004021A67A368002B3DD0FFF794FD6A
:100F240006461A4B1B6F13F0020F46D1FFF78CFDD8
:100F3400801B41F288339842F3D90320C6E0002590
:100F4400D6E7144A136843F480731360FFF77CFDFB
:100F54000646104B1B6813F4807FCED1FFF774FD57
:100F6400801B0228F5D90320B0E0084A136F43F030
:100F740001031367CFE7054B1A6F42F004021A67A7
:100F84001A6F42F001021A67C5E700BF0038024039
:100F94000000474200700040FFF756FD0646524BE2
:100FA4001B6F13F0020F08D0FFF74EFD801B41F2B8
:100FB40088339842F3D9032088E0EDB9A369002B64
:100FC40000F08380484A926802F00C02082A51D04B
:100FD400022B17D0454B00221A66FFF735FD044655
:100FE400414B1B6813F0007F42D0FFF72DFD001B1F
:100FF4000228F5D9032069E03B4A136C23F080539F
:101004001364DBE7394B00221A66FFF71DFD054622
:10101400354B1B6813F0007F06D0FFF715FD401B0E
:101024000228F5D9032051E0E369226A1343626A76
:1010340043EA8213A26A5208013A43EA0243E26A8B
:1010440043EA0263284A5360284B01221A66FFF7D9
:10105400FBFC0446244B1B6813F0007F06D1FFF70A
:10106400F3FC001B0228F5D903202FE000202DE01B
:1010740000202BE0012B2BD01B4B5B6803F4800179
:10108400E269914226D103F03F02216A8A4223D1C8
:10109400616A47F6C0721A40B2EB811F1ED103F495
:1010A4004031A26A5208013AB1EB024F18D103F061
:1010B4007063E26AB3EB026F14D1002006E00120F2
:1010C4007047012002E0012000E0002002B070BD62
:1010D4000120FBE70120F9E70120F7E70120F5E70C
:1010E4000120F3E70120F1E7003802400000474205
:1010F40008B5254B9B6803F00C03042B3FD0082B49
:101104003FD1214B5A6802F03F025B6813F4800F11
:1011140012D01D4B5968C1F388111C480023A1FB50
:101124000001FFF7EFF8184B5B68C3F30143013389
:101134005B00B0FBF3F025E0134B5968C1F3881C46
:101144004FEA4C11B1EB0C006EEB0E0E4FEA8E130E
:1011540043EA90638101091A63EB0E03DB0043EA5F
:101164005173C90011EB0C0C43F1000399020023E5
:101174004FEA8C2041EA9C51FFF7C4F8D3E70348B7
:1011840000E0034808BD00BF0038024040787D01FC
:101194000024F400002800F09B8070B50D4604463E
:1011A4004F4B1B6803F007038B4208D2CBB24C4A67
:1011B4001370136803F007038B4240F08B8023689D
:1011C40013F0020F17D013F0040F04D0454A9368AC
:1011D40043F4E0539360236813F0080F04D0414AAA
:1011E400936843F4604393603E4A936823F0F003AA
:1011F400A1680B439360236813F0010F32D0636836
:10120400012B21D09A1E012A25D9364A126812F0E0
:10121400020F61D033498A6822F0030213438B60C2
:10122400FFF712FC06462F4B9B6803F00C03626821
:10123400B3EB820F16D0FFF707FC801B41F2883313
:101244009842F0D9032042E0264A126812F4003F83
:10125400E0D101203BE0234A126812F0007FD9D18B
:10126400012034E01E4B1B6803F00703AB4207D98F
:10127400EAB21B4B1A701B6803F00703AB422DD173
:10128400236813F0040F06D0164A936823F4E0533E
:10129400E1680B439360236813F0080F07D0114AE9
:1012A400936823F46043216943EAC1039360FFF721
:1012B4001FFF0C4B9B68C3F303130B4AD35CD8404A
:1012C4000A4B18600A4B1868FFF772FB002070BDC8
:1012D400012070470120FAE70120F8E70120F6E732
:1012E400003C024000380240681B00080000002057
:1012F4000800002070B4036A026A22F0010202624C
:101304004668826922F073020C6844EA020523F0FD
:1013140002028B6813430D4CA04209D00B4CA0422F
:101324000DD0466085614A684263036270BC7047B1
:1013340023F00803CA68134323F00403EEE726F4FA
:1013440040764A6932438E691643EAE70000014059
:1013540030B4036A026A22F4807202624568C26988
:1013640022F073020C68224323F400738C6843EA6E
:1013740004230F4CA04209D00D4CA0420ED045606E
:10138400C2614A68C263036230BC704723F40063DD
:10139400CC6843EA042323F48063EDE725F4405545
:1013A4004C6945EA04158C6945EA0415E7E700BF72
:1013B4000000014030B4036A026A22F480520262DF
:1013C4004468C26922F4E6420D6842EA052223F425
:1013D40000538D6843EA0533074DA84206D04460A4
:1013E400C2614A680264036230BC704724F48044DA
:1013F4004D6944EA8514F2E70000014010B4036A21
:10140400046A24F001040462846924F0F00C4CEAB8
:10141400021223F00A030B43826103625DF8044B5A
:10142400704710B4036A046A24F0100404628469E7
:1014340024F4704C4CEA023223F0A00343EA011373
:10144400826103625DF8044B7047836823F0700384
:101454000B4343F007038360704770470368294ACE
:1014640090420ED0B0F1804F0BD0A2F57C42904256
:1014740007D002F58062904203D002F58062904268
:1014840003D123F070034A6813431E4A90421AD0D2
:10149400B0F1804F17D0A2F57C42904213D002F5F0
:1014A400806290420FD002F5806290420BD002F528
:1014B4009A32904207D002F58062904203D002F53E
:1014C4008062904203D123F44073CA68134323F02B
:1014D40080034A69134303608B68C3620B688362A9
:1014E400084B98420AD001234361036913F0010FAA
:1014F40003D0036923F00103036170470B6903639D
:10150400F1E700BF0000014040B310B5044690F875
:101514003D30F3B1022384F83D30214651F8040BE9
:10152400FFF79CFF012384F8463084F83E3084F8AA
:101534003F3084F8403084F8413084F8423084F8F5
:10154400433084F8443084F8453084F83D3000203A
:1015540010BD80F83C30FFF7BBF9DBE70120704792
:1015640040B310B5044690F83D30F3B1022384F83B
:101574003D30214651F8040BFFF770FF012384F836
:10158400463084F83E3084F83F3084F8403084F8A4
:10159400413084F8423084F8433084F8443084F88D
:1015A400453084F83D30002010BD80F83C30FFF712
:1015B40054FFDBE70120704730B4036A026A22F06B
:1015C400100202624468826922F4E6420D6842EA2B
:1015D400052223F020038D6843EA05130E4DA8422B
:1015E40009D00D4DA8420ED0446082614A688263DE
:1015F400036230BC704723F08003CD6843EA0513CF
:1016040023F04003EDE724F440644D6944EA850483
:101614008D6944EA8504E7E70000014038B590F895
:101624003C30012B66D004460D46012380F83C3043
:101634000C2A5AD8DFE802F0075959591B5959594D
:101644003059595944000068FFF754FE22689369E1
:1016540043F0080393612268936923F004039361C0
:101664002268936929690B43936100203EE0006876
:10167400FFF7A2FF2268936943F400639361226831
:10168400936923F48063936122689369296943EA27
:1016940001239361002029E00068FFF759FE2268C6
:1016A400D36943F00803D3612268D36923F00403A8
:1016B400D3612268D36929690B43D361002015E003
:1016C4000068FFF777FE2268D36943F40063D361AF
:1016D4002268D36923F48063D3612268D3692969BA
:1016E40043EA0123D361002000E00120002384F8B1
:1016F4003C3038BD0220FCE710B4846824F47F4CED
:1017040042EA03220A4342EA0C0282605DF8044B77
:10171400704790F83C30012B78D010B50446012373
:1017240080F83C30022380F83D300268936823F44B
:101734007F4323F0770393600B68602B4CD029D848
:10174400402B54D00CD9502B22D1CA684968006868
:10175400FFF754FE50212068FFF777FE002005E0D4
:10176400202B0DD009D9302B0AD00120012384F875
:101774003D30002384F83C3010BD0BB1102B05D153
:1017840019462068FFF761FE0020EFE70120EDE72E
:101794000120EBE7B3F5805F34D0B3F5005F0CD1E3
:1017A400CB684A6889680068FFF7A6FF22689368D7
:1017B40043F4804393600020D8E7702B24D1CB6896
:1017C4004A6889680068FFF797FF2268936843F0C6
:1017D400770393600020C9E7CA6849680068FFF787
:1017E40020FE60212068FFF730FE0020BEE7CA68B3
:1017F40049680068FFF702FE40212068FFF725FED4
:101804000020B3E70020B1E70120AFE702207047D2
:1018140001F01F01012303FA01FC036A23EA0C030C
:101824000362036A02FA01F10B430362704700008A
:1018340010B504460846002932D194F83E30DBB294
:10184400013B18BF0123002B63D1002841D102239F
:1018540084F83E30012201462068FFF7D9FF23684F
:101864002E4A934245D023682C4A934246D0B3F182
:10187400804F43D0A2F57C4293423FD002F5806270
:1018840093423BD002F58062934237D002F59A32FC
:10189400934233D01A6842F001021A60002037E004
:1018A400042908D008290DD094F84130DBB2013B5B
:1018B40018BF0123C7E794F83F30DBB2013B18BFE0
:1018C4000123C0E794F84030DBB2013B18BF012389
:1018D400B9E7042805D0082807D0022384F841304A
:1018E400B8E7022384F83F30B4E7022384F8403099
:1018F400B0E75A6C42F400425A64B4E79A6802F0C2
:101904000702062A07D01A6842F001021A60002072
:1019140010BD0120FCE70020FAE700BF00000140F1
:1019240001F00F01042303FA01FC036A23EA0C0308
:101934000362036A02FA01F10B4303627047000079
:1019440010B504460846002933D194F84230DBB27E
:10195400013B18BF0123002B5FD1002842D1022391
:1019640084F84230042201462068FFF7D9FF226838
:10197400536C43F40043536423682A4A934241D08E
:10198400B3F1804F3ED0A2F57C4293423AD002F5A7
:101994008062934236D002F58062934232D002F5DF
:1019A4009A3293422ED01A6842F001021A60002043
:1019B40032E0042908D008290DD094F84530DBB270
:1019C400013B18BF0123C6E794F84330DBB2013B67
:1019D40018BF0123BFE794F84430DBB2013B18BFC2
:1019E4000123B8E7042805D0082807D0022384F887
:1019F4004530B7E7022384F84330B3E7022384F881
:101A04004430AFE79A6802F00702062A07D01A6842
:101A140042F001021A60002010BD0120FCE7002002
:101A2400FAE700BF0000014090F83C30012B35D0AC
:101A340010B4012380F83C30022380F83D30036861
:101A44005A689C6822F0700C0A6842EA0C025A60D8
:101A54000368134A934212D0B3F1804F0FD0A2F51A
:101A64007C4293420BD002F58062934207D002F588
:101A74008062934203D002F59A32934204D124F057
:101A840080044A6814439C60012380F83D3000239D
:101A940080F83C3018465DF8044B704702207047CC
:101AA4000000014090F83C30012B22D0012380F843
:101AB4003C30CB6823F440738A68134323F4806377
:101AC4004A68134323F400630A68134323F48053DE
:101AD4000A69134323F400534A69134323F48043EC
:101AE400CA69134302685364002380F83C301846E3
:101AF4007047022070470000DFF834D0FEF74EFF35
:101B04000C480D490D4A002302E0D458C450043354
:101B1400C4188C42F9D30A4A0A4C002301E013602A
:101B24000432A242FBD3FEF777FBFEF771FE704747
:101B340000000120000000200C000020881B000889
:101B44000C00002074000020FEE70000F8B500BF80
:101B5400F8BC08BC9E467047F8B500BFF8BC08BC8A
:041B64009E467047E2
:101B68000000000000000000010203040607080945
:081B7800C0E7FF7F010000003F
:041B8000FD0100085B
:041B8400D50100087F
:0C1B88000024F400010000001000000028
:0400000508001AFDD8
:00000001FF
